{
  "contractName": "Election",
  "abi": [
    {
      "constant": true,
      "inputs": [],
      "name": "candidatesCount",
      "outputs": [
        {
          "name": "",
          "type": "uint256"
        }
      ],
      "payable": false,
      "stateMutability": "view",
      "type": "function"
    },
    {
      "constant": true,
      "inputs": [
        {
          "name": "",
          "type": "uint256"
        }
      ],
      "name": "candidates",
      "outputs": [
        {
          "name": "id",
          "type": "uint256"
        },
        {
          "name": "name",
          "type": "string"
        },
        {
          "name": "fname",
          "type": "string"
        },
        {
          "name": "date",
          "type": "string"
        },
        {
          "name": "adresse",
          "type": "string"
        },
        {
          "name": "voteCount",
          "type": "uint256"
        }
      ],
      "payable": false,
      "stateMutability": "view",
      "type": "function"
    },
    {
      "constant": true,
      "inputs": [
        {
          "name": "",
          "type": "address"
        }
      ],
      "name": "voters",
      "outputs": [
        {
          "name": "",
          "type": "bool"
        }
      ],
      "payable": false,
      "stateMutability": "view",
      "type": "function"
    },
    {
      "anonymous": false,
      "inputs": [
        {
          "indexed": true,
          "name": "_candidateId",
          "type": "uint256"
        }
      ],
      "name": "votedEvent",
      "type": "event"
    },
    {
      "constant": false,
      "inputs": [
        {
          "name": "_name",
          "type": "string"
        },
        {
          "name": "_fname",
          "type": "string"
        },
        {
          "name": "_date",
          "type": "string"
        },
        {
          "name": "_adresse",
          "type": "string"
        }
      ],
      "name": "addCandidate",
      "outputs": [],
      "payable": false,
      "stateMutability": "nonpayable",
      "type": "function"
    },
    {
      "constant": false,
      "inputs": [
        {
          "name": "_candidateId",
          "type": "uint256"
        }
      ],
      "name": "vote",
      "outputs": [],
      "payable": false,
      "stateMutability": "nonpayable",
      "type": "function"
    }
  ],
  "bytecode": "0x608060405234801561001057600080fd5b506109f6806100206000396000f30060806040526004361061006d576000357c0100000000000000000000000000000000000000000000000000000000900463ffffffff1680630121b93f146100725780632d35a8a21461009f5780633477ee2e146100ca57806342b03cc9146102c2578063a3ec138d146103fd575b600080fd5b34801561007e57600080fd5b5061009d60048036038101908080359060200190929190505050610458565b005b3480156100ab57600080fd5b506100b461057a565b6040518082815260200191505060405180910390f35b3480156100d657600080fd5b506100f560048036038101908080359060200190929190505050610580565b604051808781526020018060200180602001806020018060200186815260200185810385528a818151815260200191508051906020019080838360005b8381101561014d578082015181840152602081019050610132565b50505050905090810190601f16801561017a5780820380516001836020036101000a031916815260200191505b50858103845289818151815260200191508051906020019080838360005b838110156101b3578082015181840152602081019050610198565b50505050905090810190601f1680156101e05780820380516001836020036101000a031916815260200191505b50858103835288818151815260200191508051906020019080838360005b838110156102195780820151818401526020810190506101fe565b50505050905090810190601f1680156102465780820380516001836020036101000a031916815260200191505b50858103825287818151815260200191508051906020019080838360005b8381101561027f578082015181840152602081019050610264565b50505050905090810190601f1680156102ac5780820380516001836020036101000a031916815260200191505b509a505050505050505050505060405180910390f35b3480156102ce57600080fd5b506103fb600480360381019080803590602001908201803590602001908080601f0160208091040260200160405190810160405280939291908181526020018383808284378201915050505050509192919290803590602001908201803590602001908080601f0160208091040260200160405190810160405280939291908181526020018383808284378201915050505050509192919290803590602001908201803590602001908080601f0160208091040260200160405190810160405280939291908181526020018383808284378201915050505050509192919290803590602001908201803590602001908080601f016020809104026020016040519081016040528093929190818152602001838380828437820191505050505050919291929050505061081c565b005b34801561040957600080fd5b5061043e600480360381019080803573ffffffffffffffffffffffffffffffffffffffff169060200190929190505050610905565b604051808215151515815260200191505060405180910390f35b6000803373ffffffffffffffffffffffffffffffffffffffff1673ffffffffffffffffffffffffffffffffffffffff16815260200190815260200160002060009054906101000a900460ff161515156104b057600080fd5b6000811180156104c257506002548111155b15156104cd57600080fd5b60016000803373ffffffffffffffffffffffffffffffffffffffff1673ffffffffffffffffffffffffffffffffffffffff16815260200190815260200160002060006101000a81548160ff0219169083151502179055506001600082815260200190815260200160002060050160008154809291906001019190505550807ffff3c900d938d21d0990d786e819f29b8d05c1ef587b462b939609625b684b1660405160405180910390a250565b60025481565b6001602052806000526040600020600091509050806000015490806001018054600181600116156101000203166002900480601f0160208091040260200160405190810160405280929190818152602001828054600181600116156101000203166002900480156106325780601f1061060757610100808354040283529160200191610632565b820191906000526020600020905b81548152906001019060200180831161061557829003601f168201915b505050505090806002018054600181600116156101000203166002900480601f0160208091040260200160405190810160405280929190818152602001828054600181600116156101000203166002900480156106d05780601f106106a5576101008083540402835291602001916106d0565b820191906000526020600020905b8154815290600101906020018083116106b357829003601f168201915b505050505090806003018054600181600116156101000203166002900480601f01602080910402602001604051908101604052809291908181526020018280546001816001161561010002031660029004801561076e5780601f106107435761010080835404028352916020019161076e565b820191906000526020600020905b81548152906001019060200180831161075157829003601f168201915b505050505090806004018054600181600116156101000203166002900480601f01602080910402602001604051908101604052809291908181526020018280546001816001161561010002031660029004801561080c5780601f106107e15761010080835404028352916020019161080c565b820191906000526020600020905b8154815290600101906020018083116107ef57829003601f168201915b5050505050908060050154905086565b60026000815480929190600101919050555060c0604051908101604052806002548152602001858152602001848152602001838152602001828152602001600081525060016000600254815260200190815260200160002060008201518160000155602082015181600101908051906020019061089a929190610925565b5060408201518160020190805190602001906108b7929190610925565b5060608201518160030190805190602001906108d4929190610925565b5060808201518160040190805190602001906108f1929190610925565b5060a0820151816005015590505050505050565b60006020528060005260406000206000915054906101000a900460ff1681565b828054600181600116156101000203166002900490600052602060002090601f016020900481019282601f1061096657805160ff1916838001178555610994565b82800160010185558215610994579182015b82811115610993578251825591602001919060010190610978565b5b5090506109a191906109a5565b5090565b6109c791905b808211156109c35760008160009055506001016109ab565b5090565b905600a165627a7a7230582092e274466fa57d49fe20ed9b3da17f81bd7791e32d775d7e3183c531864d69370029",
  "source": "pragma solidity 0.4.24;\n\ncontract Election {\n    // Model d'un candidat\n    struct Candidate {\n        uint id;\n        string name;\n        string fname;\n        string date;\n        string adresse;\n        uint voteCount;\n    }\n\n    // enregistrer les comptes qui ont déja voté\n    mapping(address => bool) public voters;\n    // enregistrer et chercher un candidat\n    mapping(uint => Candidate) public candidates;\n    // enregistrer le nombre de candidats\n    uint public candidatesCount;\n\n    \n    //  event VOTE\n    event votedEvent ( uint indexed _candidateId);\n\n\n    function addCandidate (string _name,string _fname,string _date,string _adresse ) public {\n        candidatesCount ++;\n        candidates[candidatesCount] = Candidate(candidatesCount, _name,_fname,_date,_adresse, 0);\n    }\n\n    function vote (uint _candidateId) public {\n\n        // require qu'il n'as pas déja voté \n        require(!voters[msg.sender]);\n\n        // require un candidat valid \n        require(_candidateId > 0 && _candidateId <= candidatesCount);\n\n        // enregistrer un electeur qui a voté\n        voters[msg.sender] = true;\n\n        // Mise à jour les voies d'un candidat\n        candidates[_candidateId].voteCount ++;\n\n        // Déclancher voted event\n       emit votedEvent(_candidateId);\n\n       // une autre candition doit ëtre ajouté (require (votelancé =true))\n\n    }\n       \n}\n",
  "sourcePath": "C:\\Users\\Taoufiq\\Desktop\\vote\\contracts\\Election.sol",
  "compiler": {
    "name": "solc",
    "version": "0.4.24+commit.e67f0147.Emscripten.clang"
  },
  "schemaVersion": "3.4.10",
  "updatedAt": "2022-11-18T16:09:19.902Z",
  "networkType": "ethereum",
  "devdoc": {
    "methods": {}
  },
  "userdoc": {
    "methods": {}
  }
}